:020000040800F2
:10000000D0040020551500083115000833150008EC
:1000100035150008371500083915000800000000E4
:100020000000000000000000000000003B15000878
:100030003D150008000000003F15000841150008AC
:10004000891500088D150008911500089515000800
:10005000991500089D150008A1150008A5150008B0
:10006000A9150008AD150008B1150008B515000860
:10007000B9150008BD150008C1150008C515000810
:10008000C9150008CD150008D115000800000000B2
:10009000000000000000000000000000D51500086E
:1000A000D9150008DD150008E1150008E515000860
:1000B000E9150008ED150008F1150008F515000810
:1000C000F9150008FD1500080116000805160008BE
:1000D000091600080D16000811160008000000009F
:1000E00015160008191600081D160008000000006B
:1000F00000000000000000000000000021160008C1
:100100000000000025160008291600082D1600081A
:1001100000000000000000000000000000000000DF
:100120003116000835160008391600083D1600087B
:100130004116000800000000000000000000000060
:10014000000000000000000000000000451600084C
:10015000491600084D1600085116000855160008EB
:10016000591600085D16000800000000000000009D
:10017000000000000000000000000000000000007F
:1001800000000000611600080000000000000000F0
:100190006516000802206870211D206800F0F8F83C
:1001A00001206870002032BD38B5040001D1012063
:1001B00032BD00F028F818B900F021F800F0F4F989
:1001C000E8E710B500F023F801E000F024F800F0B3
:1001D000C3F92068DFF8C010884205D1DFF8BC10F1
:1001E0000A6842F400420A60816801F007010629AA
:1001F00003D0016841F001010160002010BD002121
:1002000029702046704704F13C0568787047044621
:100210000122206870470446080006D0042909D04E
:1002200008290CD00C290FD013E02068C26842F0D6
:1002300002020DE02068C26842F0040208E0206873
:10024000C26842F0080203E02068C26842F010026F
:10025000C26020680122704770B504000E4601D1CB
:10026000012070BDFFF7CFFF18B9FFF7C8FF00F0FE
:10027000AEF902206870211D206800F089F820681E
:10028000016821F0080101602068026816430660D9
:1002900001206870002070BD000001404400014052
:1002A00070B500F063F801D1022070BD00F06BF86A
:1002B00032B1042A17D0082A28D00C2A39D04AE0B3
:1002C0003068294600F0A1F83068816941F00801E2
:1002D00000F048F821F00401816131688A692869D9
:1002E00002438A6137E03068294600F0B3F830688D
:1002F000816941F4006100F035F821F4806100F07B
:1003000031F82A6941EA0221816124E030682946F6
:1003100000F0C9F83068C16941F0080100F01EF82A
:1003200021F00401C1613168CA6928690243CA61C8
:1003300011E03068294600F0DEF83068C16941F408
:10034000006100F00BF821F4806100F007F82A69E1
:1003500041EA0221C16100F010F870BDC16130684E
:10036000C16970478161306881697047064606F14E
:100370003C040D4620780128704701206070002160
:1003800021700020704701202070022161707047A9
:10039000F0B5694B0468694D694E6A4F984218BFC1
:1003A000B0F1804F04D0B8421CBFB042A8420CD17B
:1003B0004A6824F070041443984218BFB0F1804F8B
:1003C0000ED0B84218BFB0420AD0A8421CBF5E4A45
:1003D000904205D05D4DA8421CBF5D4A904203D1BA
:1003E000CA6824F4407414434A6924F08004144316
:1003F000046098428C68C4620A68826202D109690A
:10040000544A116001234361F0BD70B5026A52087D
:1004100052000262066A446885690B688A6825F0A2
:1004200073051D4326F002061643434B98420BD139
:10043000CA684B6926F0080624F4407416438A699A
:100440001C4326F0040614434460856149684163F7
:10045000066270BD70B5026A374E22F01002026269
:10046000B042056A436884690A6824F4E64444EAB1
:1004700002248A6825F0200545EA02150DD1CA68D4
:100480004E6925F0800545EA02158A6923F4406328
:10049000164325F0400543EA8603436084614968BA
:1004A0008163056270BD70B5026A22F480720262D7
:1004B000056A4368C4690A688E6824F073041443AB
:1004C0001D4A25F40075904245EA06250DD1CA68FB
:1004D0004E6925F4006545EA02258A6923F44053F4
:1004E000164325F4806543EA06134360C4614968F6
:1004F000C163056270BD70B5026A0F4E22F480526E
:100500000262B042046A4268C3690D6823F4E6439C
:1005100043EA05238D6824F4005444EA053404D1E9
:100520004D6922F4804242EA85124260C361496803
:100530000164046270BD000000000140000C004036
:100540000008004000040040004001400044014019
:10055000004801403000014010B501F01F01036A5E
:1005600001248C40A343036202FA01F1036A194398
:10057000016210BD81B00020009000224548416812
:1005800041F480414160416801F48041009100994B
:100590000092036843F080530360006800F08050CD
:1005A0000090009801B0704781B00068B0F1804FB2
:1005B0000BD1002137480091026842F0010202602D
:1005C000006800F001000090009801B0704781B011
:1005D0000068314988420BD100222E480092016800
:1005E00041F004010160006800F0040000900098F0
:1005F00001B0704710B586B000F03AF82168B1F14B
:10060000804F0FD10020009002222448016841F061
:1006100001010160202100F031F80121059101A9BB
:1006200000F042F806B010BD10B586B000F020F81A
:1006300021681B48814219D10022184800920169A3
:1006400041F400310161016901F400310091009928
:1006500000920C21036843F001030360022200F0C2
:100660000DF80721059101A900F01EF806B010BD94
:1006700004461422002101A800F0EEB8006800F042
:100680000100009000980748019102920021039117
:100690000491704740380240000800403038024062
:1006A00000440040000002402DE9F84F0D460026AE
:1006B0006149624A0F23044601202F68B04000EAD6
:1006C0000708804540F0B2804FEA460C032707FA3E
:1006D0000CF76FEA070E6F68012F18BF022F03D0C7
:1006E000112F18BF122F12D1A768D5F80C900EEA5F
:1006F000070709FA0CF949EA0707A760676827EABC
:1007000000006F68C7F30017B74038436060E068C7
:10071000AF680EEA000007FA0CF73843E060B0005B
:100720006F68022F18BF122F12D1F70804EB87074A
:1007300000F01C09D7F820A003FA09FB2AEA0B0AEB
:10074000D5F810B00BFA09F949EA0A09C7F8209060
:1007500027680EEA070E2F7907F0030707FA0CF750
:1007600047EA0E0727606F68FF005FD500270097F4
:100770004FEA960C176847F48047176000F00C00AA
:10078000176807F48047009703FA00FE009F2C4F7C
:1007900057F82C7027EA0E0E2A4FBC4208BF0027DC
:1007A00013D0294FBC4208BF01270ED0274FBC42AF
:1007B00008BF022709D0264FBC4208BF032704D038
:1007C000244FBC420CBF0427072707FA00F01C4F38
:1007D00040EA0E0047F82C006FEA08000F6800EAB4
:1007E000070C6F68FF0348BF48EA0C0CC1F800C053
:1007F0004F6800EA070C6F68BF0348BF48EA0C0C5B
:10080000C1F804C08F6800EA070C6F68FF0248BF98
:1008100048EA0C0CC1F808C0CF6800EA070C686809
:10082000800248BF48EA0C0CC1F80CC0761C0F2EA1
:100830007FF642AFBDE8F18F003C014044380240F2
:100840000838014000000240000402400008024055
:10085000000C02400010024010B5044610460A4643
:100860000146204600F002F8204610BD62F30F2238
:1008700062F31F42401810F0030308D0C91A1FD3B7
:10088000DB0748BF00F8012D28BF20F8022D130018
:1008900030B414461546103928BF20E93C00FAD878
:1008A000490728BF20E90C0048BF40F8042D890003
:1008B00028BF20F8022D48BF00F8012D30BC70473A
:1008C000C91818BF00F8012DCB0728BF00F8012D6B
:1008D000704730B4002513E050F8042BD30744BF11
:1008E000A9F101039A18091F042942F8045BFAD2FE
:1008F00013468C0744BF15809B1CC90748BF1D7059
:1009000050F8041B0029E7D130BC70472DE9F843AB
:10091000040016D02078DFF8F462C10713D5B06860
:1009200000F00C00042807D0B06800F00C00082884
:100930003DD1706841023AD53068810303D56068C3
:10094000002800F05E812078B14F810719D5B0688A
:1009500010F00C0F07D0B06800F00C0008285BD135
:100960007068410258D43068810703D5E0680128D7
:1009700040F047813168206921F0F80141EAC00167
:1009800031602178080779D56069A249002868D0CC
:1009900001220A6000F042F90546706F81076DD4AC
:1009A00000F03CF9401B0228F7D903202CE16068D5
:1009B000B0F5803F04D1306840F48030306011E001
:1009C000B0F5A02F306806D140F480203060316847
:1009D00041F4803105E020F480303060316821F44A
:1009E00080213160606858B100F018F90546306820
:1009F0008103A8D400F012F9401B6528F7D3D4E78F
:100A000000F00CF90546306881039CD500F006F92A
:100A1000401B6528F7D3C8E7E068A8B10121396019
:100A200000F0FCF805463068810705D400F0F6F8C0
:100A3000401B0228F7D9B8E73068216920F0F80098
:100A400040EAC10030609CE7386000F0E7F80546F6
:100A50003168880795D500F0E1F8401B0228F7D9E6
:100A6000A3E7086000F0DAF80546706F810705D546
:100A700000F0D4F8401B0228F7D996E72078410708
:100A80005FD5306C0025C1000AD400950125316C7A
:100A900041F080513164306C00F08050009000983B
:100AA000DFF87481D8F80000C10513D4D8F800002D
:100AB00040F48070C8F8000000F0B0F88146D8F823
:100AC0000000C10506D400F0A9F8A0EB0900022837
:100AD000F5D96AE7A068012805D00528306F06D14E
:100AE00040F004003067306F40F0010005E040083E
:100AF00040003067306F20F00400306741F28938E1
:100B0000A06860B100F08AF88146306F810713D485
:100B100000F084F8A0EB09004045F6D345E700F06B
:100B20007DF88146306F810706D500F077F8A0EB9D
:100B300009004045F6D338E71DB1306C20F08050F5
:100B40003064A06900285ED0B16801F00C0108296A
:100B50003AD002282AD10020386600F05FF8054616
:100B60003068810105D500F059F8401B0228F7D9FB
:100B70001BE7E069216A626A0843A16A490840EA02
:100B80008210491E40EA0140E16A40EA016070605B
:100B90000120386600F042F804463068810132D402
:100BA00000F03CF8001B0228F7D9FEE6002038666A
:100BB00000F034F804463068810124D500F02EF8A6
:100BC000001B0228F7D9F0E601281AD0B068E269C4
:100BD00000F48001914202BF00F03F01226A91427D
:100BE0000FD147F6C071626A0140914202BF00F422
:100BF0004031A26A914202BF00F07060E16A88420F
:100C000001D0012000E00020BDE8F283003802405E
:100C100000004742800E4742007000400148406893
:100C2000704700BF0000002078B589B000F00EF9D1
:100C300000F098F800F0DFF800247B487B4E009429
:100C40000025016841F004010160026802F004021D
:100C500000920099764A0094036843F08003036091
:100C6000016801F08001009100990094036843F04D
:100C700001030360016801F00101009100990094F3
:100C80004FF40051036843F002030360006800F072
:100C9000020000900098674801910292039401A914
:100CA000FFF702FD40F23741716440F2CF716248B4
:100CB0003064F164B4643465B465082106F1400021
:100CC000FFF7CAFA5D4830604FF4E1310C207061E3
:100CD0007160B460F4603461B461F461304600F076
:100CE000CFF8082200216846FFF7B6FD1C2200213C
:100CF00002A8FFF7B1FD524E4FF08040306040F245
:100D0000234140F2ED20F0607160B4603461B46161
:100D10003046FFF749FA009401946946304600F0E6
:100D20005DF960210291002203920492069202A9C9
:100D30003046FFF7B5FA3046FFF75CFC002130463D
:100D4000FFF73FFA642000F085F92CB1B4F5FA6F93
:100D500003D16FF0630500E064252C19A0B200F008
:100D60004FF8EFE780B592B03022002106A8FFF7D8
:100D700073FD00F040F8002000903248016841F017
:100D8000805101600021006800F0805000900098C0
:100D90002D4800910221026822F4404242F40042B0
:100DA00002600122006800F4404000900098069123
:100DB000099210210A91022200210C920D91102219
:100DC0004FF4A8710E920F910422072110921191F5
:100DD00006A8FFF79BFD022102910F204FF48051DE
:100DE00001900022049103920592022101A800F0D3
:100DF00045F913B000BD1422002101A8FFF72CBD56
:100E000018B587B0602200920190002202920492ED
:100E100069460B4C2046FFF743FA00212046FFF7B6
:100E2000D0F908B010BD000030380240100000209A
:100E3000000021100008024000080040004400406B
:100E400090000020403802400070004080B50B4800
:100E5000016841F400710160026842F4806202603E
:100E6000016841F480710160032000F0EAF900207C
:100E700000F030FAFFF77EFB002002BD003C02408C
:100E800038B5040001D1012032BD00F021F808B9C5
:100E900000F022F800F012F800F023F8FFE74161BB
:100EA00000F001F832BD2068C16841F40051C16012
:100EB0000020686020216970A97070472420687044
:100EC0002068C16821F40051C160204600F013B8C9
:100ED00004F1380568787047002129702046FFF733
:100EE000A3BB2068016921F4904101612068416938
:100EF00021F02A017047D0B506466427326811698F
:100F0000F06821F44051014311611924D3682D4840
:100F1000B168034030690B4371690343F0690B43C7
:100F20000343D3605169B06921F4407101435161B9
:100F3000F36925482549B3F5004F1FD18A4218BFF0
:100F4000824202D100F028F901E000F01DF90246CA
:100F5000A4FB02017268D30F520000F0DBF900F02D
:100F600037F8FF0032376420B7FBF0F0420002F49C
:100F7000F87202EB011200F007001DE08A4218BF70
:100F8000824202D100F008F901E000F0FDF80246CB
:100F9000A4FB02017268930F920000F0BBF900F00D
:100FA00017F83F0132376420B7FBF0F000F0F00291
:100FB00002EB011200F00F00316880188860D0BD8C
:100FC00000000000F369FFFF001401400010014021
:100FD0006421B0FBF1F107FB1107704770B500F118
:100FE0003C031A78012A01D1022070BD01221A7037
:100FF00002245C7005686E68AC680A6826F07006AA
:1010000016436E6002680E48824218BFB2F1804FEC
:101010000BD00C4882421CBF0B4DAA4205D00B4896
:1010200082421CBF0A4DAA4204D1486824F08004C1
:1010300004439460012159700020187070BD0000B5
:10104000000001400004004000080040000C004087
:101050000040014038B50446FFF7E0FD14F1010FF0
:10106000054602D0044801786418FFF7D7FD401BFD
:10107000A042FAD331BD00BF000000202DE9F041AD
:1010800004000F4654D0494E306800F00F00B842BB
:1010900002D200F073F84BD12068454D810712D57C
:1010A000400703D5A96841F4E051A9602078010701
:1010B00003D5A86840F46040A860A968A06821F042
:1010C000F0010143A9602178C80729D5606801288B
:1010D00002D129688A0305E0022818BF032803D13A
:1010E00029688A0103D423E029688A0720D5A968E2
:1010F000890840EA8100A860FFF790FD8046A86853
:10110000616800F00C00B0EB810F09D0FFF786FD9D
:10111000A0EB080041F289318842F0D303202BE094
:10112000306800F00F00874204D200F027F801D0A9
:10113000012021E02078410705D5AA68E06822F463
:10114000E0520243AA602178080706D5A968206901
:1011500021F4604141EAC001A96000F035F8AA68B5
:101160001449154BC2F30312895CC8401860134838
:10117000006800F0AFF80020BDE8F08137703168FA
:1011800001F00F01B94270470B480D4A006813681F
:101190000C49C3F3822206E00748094A0068136835
:1011A0000849C3F34232895CC8407047003C0240A2
:1011B00000380240681400080C00002008000020DD
:1011C000083802408015000830B5144C606800F003
:1011D0000C00042802D0082802D01DE0104830BDC1
:1011E000226820680023410202F03F0204D52568EE
:1011F0000B49C5F3881003E020680A49C0F3881042
:10120000A1FB000100F086F82168C1F30141491CEF
:101210004900B0FBF1F030BD024830BD0438024057
:1012200000127A000024F4000901020002D42448CC
:1012300081547047234B02F00F021A4402F8041C39
:101240007047214B19684FF6FF020002114000F46D
:10125000E06008431D4908431860704770B51A4B99
:101260001C68C4F302230124C3F10705052D2EBF1A
:101270000F2504FA05F56D1E1E1D072E34BF002331
:10128000DB1E2940994004FA03F3BDE870405B1E61
:101290001A401143C8E710B5401EB0F1807F01D35A
:1012A000012010BD0A4C60600F214FF0FF30FFF7A6
:1012B000BBFF0021A16007202060002010BD0000BE
:1012C00000E400E018ED00E00CED00E00000FA059D
:1012D00010E000E038B50D4D0D4B2A7804464FF470
:1012E0007A711868B1FBF2F2B0FBF2F0FFF7D3FFAE
:1012F00050B9102C08D2002221464FF0FF30FFF7E2
:10130000ADFFAC60002032BD012032BD00000020E6
:101310000C000020D3BBD9B1B2F5803F5BD2022ACA
:101320001ED98C46B1FBF2F102FB11C31B0443EA48
:101330001043B3FBF2FC02FB1C3380B240EA0343D0
:10134000B3FBF2F002FB103240EA0C40002370477E
:10135000022A05D98446B0FBF2F002FB10C27047A6
:101360004AB105D100F0010249085FEA3000704738
:1013700000220023704700F067B80B000200002134
:1013800000207047F7D3002200237047904271EB92
:10139000030CF2D370B5B1FA81F4B3FA83F52C1BC8
:1013A000A340C4F1200532FA05F63343A2405FF0B2
:1013B0000046E64002E05B085FEA3202841A71EB05
:1013C000030524BF204629467641F4D302000B00D2
:1013D0003000002170BD70B5B1FA81F4B2FA82F527
:1013E000C4F120046419B4F12006DAD3B2405FF0EE
:1013F0000044F440002502E052085FEA3303C61AB5
:1014000071EB020E24BF3046714664416D41F3D347
:1014100002000B002000290070BD30B40EE002680D
:10142000436802440830DC0744BFA9F10104E31813
:1014300052F8045B43F8045B091FF9D150F8041B10
:101440000029ECD130BC7047704700000448054AC1
:10145000016841F4700101604FF000601060704756
:1014600088ED00E008ED00E0000000000000000052
:10147000010203040607080910B507497944183129
:10148000064C7C44163404E00A68081D1144884761
:101490000146A142F8D110BD2C0000004C00000014
:1014A0004EF68851CEF20001086840F470000860E2
:1014B000BFF34F8FBFF36F8F4FF00070E1EE100A54
:1014C000704700000FF4FFFFC00000001000002074
:1014D0000000000047FFFFFF100000008800000030
:1014E000000000200000000000F00DF8002801D0EE
:1014F000FFF7C2FFAFF300800020AFF30080FFF7DB
:1015000093FB00F002F80120704700F001B80000E2
:101510000746384600F002F8FBE7000080B5AFF35D
:101520000080024A11001820ABBEFBE72600020033
:101530007047FEE7FEE7FEE7FEE77047704770473B
:1015400000F000B80248416802788A18426070478B
:101550000000002001488047014800474D14000862
:1015600075150008010000000000000010000000D8
:101570000024F400AFF30080FFF792FFFFF7B4FF01
:101580000000000001020304FFF7FEBFFFF7FEBFEB
:10159000FFF7FEBFFFF7FEBFFFF7FEBFFFF7FEBF7F
:1015A000FFF7FEBFFFF7FEBFFFF7FEBFFFF7FEBF6F
:1015B000FFF7FEBFFFF7FEBFFFF7FEBFFFF7FEBF5F
:1015C000FFF7FEBFFFF7FEBFFFF7FEBFFFF7FEBF4F
:1015D000FFF7FEBFFFF7FEBFFFF7FEBFFFF7FEBF3F
:1015E000FFF7FEBFFFF7FEBFFFF7FEBFFFF7FEBF2F
:1015F000FFF7FEBFFFF7FEBFFFF7FEBFFFF7FEBF1F
:10160000FFF7FEBFFFF7FEBFFFF7FEBFFFF7FEBF0E
:10161000FFF7FEBFFFF7FEBFFFF7FEBFFFF7FEBFFE
:10162000FFF7FEBFFFF7FEBFFFF7FEBFFFF7FEBFEE
:10163000FFF7FEBFFFF7FEBFFFF7FEBFFFF7FEBFDE
:10164000FFF7FEBFFFF7FEBFFFF7FEBFFFF7FEBFCE
:10165000FFF7FEBFFFF7FEBFFFF7FEBFFFF7FEBFBE
:08166000FFF7FEBFFFF7FEBF1C
:040000050800157565
:00000001FF
