:020000040800F2
:1000000098040020C11100082D1000082F100008CE
:1000100031100008331000083510000800000000FF
:100020000000000000000000000000003710000881
:1000300039100008000000003B1000083D100008C7
:10004000F5110008F9110008FD110008011200085F
:1000500005120008091200080D120008111200080C
:1000600015120008191200081D12000821120008BC
:1000700025120008291200082D120008311200086C
:1000800035120008391200083D1200080000000077
:100090000000000000000000000000004112000805
:1000A00045120008491200084D12000851120008BC
:1000B00055120008591200085D120008611200086C
:1000C00065120008691200086D120008711200081C
:1000D00075120008791200087D1200080000000067
:1000E000411000088112000885120008000000007D
:1000F000000000000000000000000000891200085D
:10010000000000008D1200089112000895120008EE
:1001100000000000000000000000000000000000DF
:10012000991200089D120008A1120008A5120008EB
:10013000A9120008000000000000000000000000FC
:10014000000000000000000000000000AD120008E8
:10015000B1120008B5120008B9120008BD1200085B
:10016000C1120008C51200080000000000000000D5
:10017000000000000000000000000000000000007F
:1001800000000000C912000800000000000000008C
:10019000CD1200082DE9F843040016D02078DFF8CE
:1001A000F462C10713D5B06800F00C00042807D032
:1001B000B06800F00C0008283DD1706841023AD5C3
:1001C0003068810303D56068002800F05E812078E4
:1001D000B14F810719D5B06810F00C0F07D0B06887
:1001E00000F00C0008285BD17068410258D43068D8
:1001F000810703D5E068012840F047813168206914
:1002000021F0F80141EAC00131602178080779D571
:100210006069A249002868D001220A6000F042F912
:100220000546706F81076DD400F03CF9401B022831
:10023000F7D903202CE16068B0F5803F04D1306825
:1002400040F48030306011E0B0F5A02F306806D166
:1002500040F480203060316841F4803105E020F4C2
:1002600080303060316821F480213160606858B19D
:1002700000F018F9054630688103A8D400F012F99F
:10028000401B6528F7D3D4E700F00CF90546306829
:1002900081039CD500F006F9401B6528F7D3C8E719
:1002A000E068A8B10121396000F0FCF8054630682B
:1002B000810705D400F0F6F8401B0228F7D9B8E70B
:1002C0003068216920F0F80040EAC10030609CE706
:1002D000386000F0E7F805463168880795D500F0EA
:1002E000E1F8401B0228F7D9A3E7086000F0DAF82C
:1002F0000546706F810705D500F0D4F8401B022831
:10030000F7D996E7207841075FD5306C0025C1000A
:100310000AD400950125316C41F080513164306C74
:1003200000F0805000900098DFF87481D8F8000049
:10033000C10513D4D8F8000040F48070C8F800005C
:1003400000F0B0F88146D8F80000C10506D400F0EE
:10035000A9F8A0EB09000228F5D96AE7A0680128EE
:1003600005D00528306F06D140F004003067306FAB
:1003700040F0010005E0400840003067306F20F099
:100380000400306741F28938A06860B100F08AF853
:100390008146306F810713D400F084F8A0EB090088
:1003A0004045F6D345E700F07DF88146306F810780
:1003B00006D500F077F8A0EB09004045F6D338E702
:1003C0001DB1306C20F080503064A06900285ED0F0
:1003D000B16801F00C0108293AD002282AD1002086
:1003E000386600F05FF805463068810105D500F0F9
:1003F00059F8401B0228F7D91BE7E069216A626AB5
:100400000843A16A490840EA8210491E40EA0140B7
:10041000E16A40EA016070600120386600F042F84D
:1004200004463068810132D400F03CF8001B0228F9
:10043000F7D9FEE60020386600F034F8044630684C
:10044000810124D500F02EF8001B0228F7D9F0E630
:1004500001281AD0B068E26900F48001914202BF1D
:1004600000F03F01226A91420FD147F6C071626AE3
:100470000140914202BF00F44031A26A914202BFA2
:1004800000F07060E16A884201D0012000E00020A5
:10049000BDE8F2830038024000004742800E474228
:1004A0000070004001484068704700BF0000002015
:1004B0002DE9F84F0D4600266749684A0F23044688
:1004C00001202F68B04000EA0708804540F0B28064
:1004D0004FEA460C032707FA0CF76FEA070E6F681E
:1004E000012F18BF022F03D0112F18BF122F12D1C6
:1004F000A768D5F80C900EEA070709FA0CF949EA43
:100500000707A760676827EA00006F68C7F300174E
:10051000B74038436060E068AF680EEA000007FA51
:100520000CF73843E060B0006F68022F18BF122F3D
:1005300012D1F70804EB870700F01C09D7F820A0B8
:1005400003FA09FB2AEA0B0AD5F810B00BFA09F9ED
:1005500049EA0A09C7F8209027680EEA070E2F79A2
:1005600007F0030707FA0CF747EA0E0727606F68E2
:10057000FF005FD5002700974FEA960C176847F4F5
:100580008047176000F00C00176807F48047009759
:1005900003FA00FE009F324F57F82C7027EA0E0E28
:1005A000304FBC4208BF002713D02F4FBC4208BFBA
:1005B00001270ED02D4FBC4208BF022709D02C4F77
:1005C000BC4208BF032704D02A4FBC420CBF0427FB
:1005D000072707FA00F0224F40EA0E0047F82C00E8
:1005E0006FEA08000F6800EA070C6F68FF0348BF56
:1005F00048EA0C0CC1F800C04F6800EA070C6F68AD
:10060000BF0348BF48EA0C0CC1F804C08F6800EA79
:10061000070C6F68FF0248BF48EA0C0CC1F808C01D
:10062000CF6800EA070C6868800248BF48EA0C0CF3
:10063000C1F80CC0761C0F2E7FF642AFBDE8F18FDB
:1006400002B90904816170470B4A136803421CBF59
:10065000106000F013B87047003C0140443802407D
:100660000838014000000240000402400008024037
:10067000000C024000100240143C0140704730B4AE
:10068000002513E050F8042BD30744BFA9F1010360
:100690009A18091F042942F8045BFAD213468C0702
:1006A00044BF15809B1CC90748BF1D7050F8041B30
:1006B0000029E7D130BC704738B586B000F0F4F8B7
:1006C00000F07BF800F0D4F8002000904FF40055C3
:1006D0005E485F4C016841F004010160026802F06D
:1006E00004020092002200990092036843F0800304
:1006F0000360016801F08001009100990092036895
:1007000043F001030360016801F0010100910099C9
:1007100000922021036843F002030360006800F0A8
:100720000200009000982046FFF78AFF4949029195
:1007300000220392019501A94748FFF7B9FE202145
:1007400001910122002103910491029201A9204606
:10075000FFF7AEFE002102910391019501A9204609
:10076000FFF7A6FE00220021282000F0D1F8282063
:1007700000F0EBF8394C3A48206440F237416164AC
:10078000002040F2CF71A064E1642065A0650821DB
:1007900004F1400000F00CF9324820604FF4E131E0
:1007A0000C20002260616160A260E2602261A261AF
:1007B000E261204600F06AF9FEE780B592B030228F
:1007C000002106A800F010FA00F052F80020009076
:1007D0002548016841F0805101600021006800F067
:1007E000805000900098214800910221026822F474
:1007F000404242F4004202600122006800F440409E
:10080000009000980691099210210A91022200217D
:100810000C920D9110224FF4A8710E920F910422A8
:1008200007211092119106A8FFF7B4FC0221029152
:100830000F204FF480510190002204910392059201
:10084000022101A800F0DAF913B000BD30380240EF
:1008500000000240000011100008024010000020BB
:100860000008004000440040403802400070004052
:100870001422002101A800F0B7B930B40EE00268DC
:10088000436802440830DC0744BFA9F10104E318BF
:1008900052F8045B43F8045B091FF9D150F8041BBC
:1008A0000029ECD130BC704780B50B48016841F499
:1008B00000710160026842F480620260016841F4E4
:1008C00080710160032000F016F8002000F06CFA3F
:1008D00000F08AFA002002BD003C0240090102003B
:1008E00002D4294881547047284B02F00F021A4461
:1008F00002F8041C7047264B19684FF6FF020002ED
:10090000114000F4E0600843224908431860704732
:1009100070B51F4B1C68C4F302230124C3F1070503
:10092000052D2EBF0F2504FA05F56D1E1E1D072E81
:1009300034BF0023DB1E2940994004FA03F3BDE8CD
:1009400070405B1E1A401143C8E7010007D4012222
:1009500000F01F01104B8A40400943F820207047E7
:1009600010B5401EB0F1807F01D3012010BD0B4CAB
:1009700060600F214FF0FF30FFF7B0FF0021A16052
:1009800007202060002010BD00E400E018ED00E02A
:100990000CED00E00000FA0500E100E010E000E0EE
:1009A000002129702046704704F13C0568787047A3
:1009B00070B504000E4601D1012070BDFFF7F4FFB1
:1009C00018B9FFF7EDFF00F029FA02206870211D29
:1009D000206800F00DF82068016821F0080101602E
:1009E000206802681643066001206870002070BD10
:1009F000F0B51E4B04681E4D1E4E1F4F984218BF87
:100A0000B0F1804F04D0B8421CBFB042A8420CD114
:100A10004A6824F070041443984218BFB0F1804F24
:100A20000ED0B84218BFB0420AD0A8421CBF134A29
:100A3000904205D0124DA8421CBF124A904203D1E9
:100A4000CA6824F4407414434A6924F080041443AF
:100A5000046098428C68C4620A68826202D10969A3
:100A6000094A116001234361F0BD0000000001400C
:100A7000000C00400008004000040040004001401D
:100A800000440140004801403000014038B50400F6
:100A900001D1012032BD00F021F808B900F022F8A0
:100AA00000F012F800F023F8FFE7416100F001F8D0
:100AB00032BD2068C16841F40051C1600020686007
:100AC00020216970A9707047242068702068C1686F
:100AD00021F40051C160204600F013B804F138053C
:100AE0006878704700212970204600F0AAB9206874
:100AF000016921F4904101612068416921F02A01D6
:100B00007047D0B50646642732681169F06821F451
:100B10004051014311611924D3682D48B168034045
:100B200030690B4371690343F0690B430343D3609E
:100B30005169B06921F4407101435161F36925485D
:100B40002549B3F5004F1FD18A4218BF824202D116
:100B500000F0E2F801E000F0D7F80246A4FB020141
:100B60007268D30F520000F0A7F900F037F8FF00C9
:100B700032376420B7FBF0F0420002F4F87202EB67
:100B8000011200F007001DE08A4218BF824202D124
:100B900000F0C2F801E000F0B7F80246A4FB020141
:100BA0007268930F920000F087F900F017F83F0188
:100BB00032376420B7FBF0F000F0F00202EB0112D4
:100BC00000F00F00316880188860D0BD0000000080
:100BD000F369FFFF00140140001001406421B0FBE5
:100BE000F1F107FB1107704710B5044610460A469D
:100BF0000146204600F0E4F9204610BD2DE9F04101
:100C000004000F4654D0494E306800F00F00B8423F
:100C100002D200F073F84BD12068454D810712D500
:100C2000400703D5A96841F4E051A9602078010785
:100C300003D5A86840F46040A860A968A06821F0C6
:100C4000F0010143A9602178C80729D5606801280F
:100C500002D129688A0305E0022818BF032803D1BE
:100C600029688A0103D423E029688A0720D5A96866
:100C7000890840EA8100A860FFF714FC8046A86854
:100C8000616800F00C00B0EB810F09D0FFF70AFC9F
:100C9000A0EB080041F289318842F0D303202BE019
:100CA000306800F00F00874204D200F027F801D02E
:100CB000012021E02078410705D5AA68E06822F4E8
:100CC000E0520243AA602178080706D5A968206986
:100CD00021F4604141EAC001A96000F035F8AA683A
:100CE0001449154BC2F30312895CC84018601348BD
:100CF000006800F059F80020BDE8F08137703168D5
:100D000001F00F01B94270470B480D4A00681368A3
:100D10000C49C3F3822206E00748094A00681368B9
:100D20000849C3F34232895CC8407047003C024026
:100D300000380240F81000080C00002008000020D5
:100D400008380240EC11000830B5144C606800F01F
:100D50000C00042802D0082802D01DE0104830BD45
:100D6000226820680023410202F03F0204D5256872
:100D70000B49C5F3881003E020680A49C0F38810C6
:100D8000A1FB000100F098F82168C1F30141491C62
:100D90004900B0FBF1F030BD024830BD04380240DC
:100DA00000127A000024F40038B50D4D0D4B2A785E
:100DB00004464FF47A711868B1FBF2F2B0FBF2F01E
:100DC000FFF7CEFD50B9102C08D2002221464FF07B
:100DD000FF30FFF79DFDAC60002032BD012032BD29
:100DE000000000200C00002081B0002000900022B4
:100DF0002C48416841F480414160416801F48041E0
:100E0000009100990092036843F0805303600068EA
:100E100000F080500090009801B0704781B00068E9
:100E2000214988420BD100221E480092016841F0FE
:100E300004010160006800F004000090009801B017
:100E4000704710B586B004461422002101A8FFF7B0
:100E5000CBFE21681548814222D10022144800921D
:100E6000016941F400310161016901F4003100912F
:100E7000009900920C21036843F0010303600222F1
:100E8000006800F00100009000980A480191029269
:100E90000021039104910721059101A9FFF708FBA7
:100EA00006B010BD40380240000800400044004039
:100EB0003038024000000240D3BBD9B1B2F5803FC8
:100EC0005BD2022A1ED98C46B1FBF2F102FB11C3A0
:100ED0001B0443EA1043B3FBF2FC02FB1C3380B259
:100EE00040EA0343B3FBF2F002FB103240EA0C404D
:100EF00000237047022A05D98446B0FBF2F002FBBA
:100F000010C270474AB105D100F0010249085FEAFA
:100F10003000704700220023704700F085B80B00B6
:100F20000200002100207047F7D300220023704701
:100F3000904271EB030CF2D370B5B1FA81F4B3FABD
:100F400083F52C1BA340C4F1200532FA05F6334388
:100F5000A2405FF00046E64002E05B085FEA320232
:100F6000841A71EB030524BF204629467641F4D349
:100F700002000B003000002170BD70B5B1FA81F4A1
:100F8000B2FA82F5C4F120046419B4F12006DAD370
:100F9000B2405FF00044F440002502E052085FEAEE
:100FA0003303C61A71EB020E24BF3046714664410A
:100FB0006D41F3D302000B002000290070BD00003A
:100FC00062F30F2262F31F42401810F0030308D0AF
:100FD000C91A1FD3DB0748BF00F8012D28BF20F82E
:100FE000022D130030B414461546103928BF20E9ED
:100FF0003C00FAD8490728BF20E90C0048BF40F858
:10100000042D890028BF20F8022D48BF00F8012DCB
:1010100030BC7047C91818BF00F8012DCB0728BF96
:1010200000F8012D70470000704700007047FEE790
:10103000FEE7FEE7FEE770477047704700F032B802
:1010400080B54FF40050FFF7FFFA144A14491378A3
:10105000052B6FF020001BD8DFE803F01A03070D03
:101060001A150A6862F0200210E00B685840086008
:101070004FF4FA7003E00A68504008606420BDE84D
:10108000024000F017B80A6822F020020A6001BD91
:10109000086820F02000086001BD000090000020DA
:1010A000140002400248416802788A184260704782
:1010B0000000002038B50446FFF7F4F914F1010FE1
:1010C000054602D0044801786418FFF7EBF9401B8D
:1010D000A042FAD331BD00BF000000200448054AF9
:1010E000016841F4700101604FF0006010607047CA
:1010F00088ED00E008ED00E00000000000000000C6
:10110000010203040607080910B50749794418319C
:10111000064C7C44163404E00A68081D11448847D4
:101120000146A142F8D110BD2C0000004C00000087
:101130004EF68851CEF20001086840F47000086055
:10114000BFF34F8FBFF36F8F4FF00070E1EE100AC7
:10115000704700002BF5FFFF840000001000002006
:101160000000000017F7FFFF1000000064000000FF
:10117000000000200000000000F00DF8002801D061
:10118000FFF7C2FFAFF300800020AFF30080FFF74E
:1011900093FA00F002F80120704700F001B8000057
:1011A0000746384600F002F8FBE7000080B5AFF3D1
:1011B0000080024A11001820ABBEFBE726000200A7
:1011C0000148804701480047DD100008E111000890
:1011D0000100000000000000100000000024F400E6
:1011E000AFF30080FFF7A4FFFFF7C6FF0000000089
:1011F00001020304FFF7FEBFFFF7FEBFFFF7FEBFCC
:10120000FFF7FEBFFFF7FEBFFFF7FEBFFFF7FEBF12
:10121000FFF7FEBFFFF7FEBFFFF7FEBFFFF7FEBF02
:10122000FFF7FEBFFFF7FEBFFFF7FEBFFFF7FEBFF2
:10123000FFF7FEBFFFF7FEBFFFF7FEBFFFF7FEBFE2
:10124000FFF7FEBFFFF7FEBFFFF7FEBFFFF7FEBFD2
:10125000FFF7FEBFFFF7FEBFFFF7FEBFFFF7FEBFC2
:10126000FFF7FEBFFFF7FEBFFFF7FEBFFFF7FEBFB2
:10127000FFF7FEBFFFF7FEBFFFF7FEBFFFF7FEBFA2
:10128000FFF7FEBFFFF7FEBFFFF7FEBFFFF7FEBF92
:10129000FFF7FEBFFFF7FEBFFFF7FEBFFFF7FEBF82
:1012A000FFF7FEBFFFF7FEBFFFF7FEBFFFF7FEBF72
:1012B000FFF7FEBFFFF7FEBFFFF7FEBFFFF7FEBF62
:1012C000FFF7FEBFFFF7FEBFFFF7FEBFFFF7FEBF52
:04000005080011E1FD
:00000001FF
